{
  "_format": "hh-sol-artifact-1",
  "contractName": "Lottery",
  "sourceName": "contracts/Lottery.sol",
  "abi": [
    {
      "inputs": [],
      "stateMutability": "nonpayable",
      "type": "constructor"
    },
    {
      "anonymous": false,
      "inputs": [
        {
          "indexed": true,
          "internalType": "address",
          "name": "oldOwner",
          "type": "address"
        },
        {
          "indexed": true,
          "internalType": "address",
          "name": "newOwner",
          "type": "address"
        }
      ],
      "name": "ChangeOwnerEvent",
      "type": "event"
    },
    {
      "anonymous": false,
      "inputs": [
        {
          "indexed": true,
          "internalType": "uint256",
          "name": "voteId",
          "type": "uint256"
        },
        {
          "indexed": false,
          "internalType": "enum Lottery.Proposals",
          "name": "proposal",
          "type": "uint8"
        },
        {
          "indexed": false,
          "internalType": "uint256",
          "name": "maxVoteCount",
          "type": "uint256"
        }
      ],
      "name": "DeclareWinnerEvent",
      "type": "event"
    },
    {
      "anonymous": false,
      "inputs": [
        {
          "indexed": true,
          "internalType": "address",
          "name": "voter",
          "type": "address"
        },
        {
          "indexed": false,
          "internalType": "enum Lottery.Proposals",
          "name": "proposal",
          "type": "uint8"
        }
      ],
      "name": "VoteProposalEvent",
      "type": "event"
    },
    {
      "anonymous": false,
      "inputs": [
        {
          "indexed": false,
          "internalType": "address",
          "name": "voterAddress",
          "type": "address"
        }
      ],
      "name": "VoterRegisteredEvent",
      "type": "event"
    },
    {
      "inputs": [
        {
          "internalType": "uint256",
          "name": "votingId",
          "type": "uint256"
        },
        {
          "internalType": "enum Lottery.Proposals",
          "name": "proposal",
          "type": "uint8"
        },
        {
          "internalType": "uint256",
          "name": "maxVoteCount",
          "type": "uint256"
        }
      ],
      "name": "addHistory",
      "outputs": [],
      "stateMutability": "nonpayable",
      "type": "function"
    },
    {
      "inputs": [
        {
          "internalType": "address",
          "name": "newOwner",
          "type": "address"
        }
      ],
      "name": "changeOwner",
      "outputs": [],
      "stateMutability": "nonpayable",
      "type": "function"
    },
    {
      "inputs": [],
      "name": "declareWinner",
      "outputs": [
        {
          "internalType": "enum Lottery.Proposals",
          "name": "",
          "type": "uint8"
        }
      ],
      "stateMutability": "nonpayable",
      "type": "function"
    },
    {
      "inputs": [],
      "name": "destroy",
      "outputs": [],
      "stateMutability": "nonpayable",
      "type": "function"
    },
    {
      "inputs": [],
      "name": "getTenMostRecentHistoryEntries",
      "outputs": [
        {
          "components": [
            {
              "internalType": "uint256",
              "name": "votingId",
              "type": "uint256"
            },
            {
              "internalType": "enum Lottery.Proposals",
              "name": "proposal",
              "type": "uint8"
            },
            {
              "internalType": "uint256",
              "name": "maxVoteCount",
              "type": "uint256"
            }
          ],
          "internalType": "struct Lottery.History[]",
          "name": "",
          "type": "tuple[]"
        }
      ],
      "stateMutability": "view",
      "type": "function"
    },
    {
      "inputs": [
        {
          "internalType": "uint256",
          "name": "",
          "type": "uint256"
        }
      ],
      "name": "historyOfProposals",
      "outputs": [
        {
          "internalType": "uint256",
          "name": "votingId",
          "type": "uint256"
        },
        {
          "internalType": "enum Lottery.Proposals",
          "name": "proposal",
          "type": "uint8"
        },
        {
          "internalType": "uint256",
          "name": "maxVoteCount",
          "type": "uint256"
        }
      ],
      "stateMutability": "view",
      "type": "function"
    },
    {
      "inputs": [],
      "name": "owner",
      "outputs": [
        {
          "internalType": "address",
          "name": "",
          "type": "address"
        }
      ],
      "stateMutability": "view",
      "type": "function"
    },
    {
      "inputs": [
        {
          "internalType": "uint256",
          "name": "",
          "type": "uint256"
        }
      ],
      "name": "proposals",
      "outputs": [
        {
          "internalType": "enum Lottery.Proposals",
          "name": "proposal",
          "type": "uint8"
        },
        {
          "internalType": "uint256",
          "name": "voteCount",
          "type": "uint256"
        }
      ],
      "stateMutability": "view",
      "type": "function"
    },
    {
      "inputs": [
        {
          "internalType": "address",
          "name": "_voterAddress",
          "type": "address"
        }
      ],
      "name": "registerVoter",
      "outputs": [],
      "stateMutability": "nonpayable",
      "type": "function"
    },
    {
      "inputs": [],
      "name": "reset",
      "outputs": [],
      "stateMutability": "nonpayable",
      "type": "function"
    },
    {
      "inputs": [],
      "name": "scrumVotingId",
      "outputs": [
        {
          "internalType": "uint256",
          "name": "",
          "type": "uint256"
        }
      ],
      "stateMutability": "view",
      "type": "function"
    },
    {
      "inputs": [
        {
          "internalType": "enum Lottery.Proposals",
          "name": "votedProposal",
          "type": "uint8"
        }
      ],
      "name": "voteProposal",
      "outputs": [],
      "stateMutability": "payable",
      "type": "function"
    },
    {
      "inputs": [
        {
          "internalType": "address",
          "name": "",
          "type": "address"
        }
      ],
      "name": "voters",
      "outputs": [
        {
          "internalType": "bool",
          "name": "registered",
          "type": "bool"
        },
        {
          "internalType": "uint256",
          "name": "remainingVotes",
          "type": "uint256"
        }
      ],
      "stateMutability": "view",
      "type": "function"
    },
    {
      "inputs": [],
      "name": "withdraw",
      "outputs": [],
      "stateMutability": "nonpayable",
      "type": "function"
    }
  ],
  "bytecode": "0x608060405234801561001057600080fd5b50336000806101000a81548173ffffffffffffffffffffffffffffffffffffffff021916908373ffffffffffffffffffffffffffffffffffffffff160217905550611a08806100606000396000f3fe6080604052600436106100dd5760003560e01c80637e4c10991161007f5780638da5cb5b116100595780638da5cb5b1461027c578063a3ec138d146102a7578063a6f9dae1146102e5578063d826f88f1461030e576100dd565b80637e4c10991461020a57806381cadf5e1461024957806383197ef014610265576100dd565b806338db6dd3116100bb57806338db6dd3146101745780633ccfd60b1461019d57806350448938146101b45780636e6c049b146101df576100dd565b8063013cf08b146100e257806302d4df501461012057806314034bd214610149575b600080fd5b3480156100ee57600080fd5b5061010960048036038101906101049190611154565b610325565b604051610117929190611207565b60405180910390f35b34801561012c57600080fd5b5061014760048036038101906101429190611255565b61035c565b005b34801561015557600080fd5b5061015e6103ff565b60405161016b91906112a8565b60405180910390f35b34801561018057600080fd5b5061019b60048036038101906101969190611321565b61069a565b005b3480156101a957600080fd5b506101b26107e9565b005b3480156101c057600080fd5b506101c96108e0565b6040516101d6919061145d565b60405180910390f35b3480156101eb57600080fd5b506101f4610a44565b604051610201919061147f565b60405180910390f35b34801561021657600080fd5b50610231600480360381019061022c9190611154565b610a4a565b6040516102409392919061149a565b60405180910390f35b610263600480360381019061025e91906114d1565b610a91565b005b34801561027157600080fd5b5061027a610db4565b005b34801561028857600080fd5b50610291610e7b565b60405161029e919061150d565b60405180910390f35b3480156102b357600080fd5b506102ce60048036038101906102c99190611321565b610e9f565b6040516102dc929190611543565b60405180910390f35b3480156102f157600080fd5b5061030c60048036038101906103079190611321565b610ed0565b005b34801561031a57600080fd5b5061032361101b565b005b6003816003811061033557600080fd5b600202016000915090508060000160009054906101000a900460ff16908060010154905082565b6009604051806060016040528085815260200184600281111561038257610381611181565b5b81526020018381525090806001815401808255809150506001900390600052602060002090600302016000909190919091506000820151816000015560208201518160010160006101000a81548160ff021916908360028111156103e9576103e8611181565b5b0217905550604082015181600201555050505050565b60008060009054906101000a900473ffffffffffffffffffffffffffffffffffffffff1673ffffffffffffffffffffffffffffffffffffffff163373ffffffffffffffffffffffffffffffffffffffff1614610490576040517f08c379a0000000000000000000000000000000000000000000000000000000008152600401610487906115ef565b60405180910390fd5b6000806000805b60038110156105515783600382600381106104b5576104b461160f565b5b6002020160010154111561051c57600381600381106104d7576104d661160f565b5b60020201600101549350600381600381106104f5576104f461160f565b5b6002020160000160009054906101000a900460ff169250811561051757600091505b610544565b83600382600381106105315761053061160f565b5b60020201600101540361054357600191505b5b8080600101915050610497565b5080156106485760606000805b60038110156105c357856003826003811061057c5761057b61160f565b5b6002020160010154036105b657808383806105969061166d565b9450815181106105a9576105a861160f565b5b6020026020010181815250505b808060010191505061055e565b5060008142446040516020016105da9291906116d6565b6040516020818303038152906040528051906020012060001c6105fd9190611731565b905060038382815181106106145761061361160f565b5b60200260200101516003811061062d5761062c61160f565b5b6002020160000160009054906101000a900460ff1694505050505b6001547f3e70674d4aa3f0121791998cac09559ea1f156f5b85f595118eb010531f0a729838560405161067c929190611207565b60405180910390a2610691600154838561035c565b81935050505090565b600260008273ffffffffffffffffffffffffffffffffffffffff1673ffffffffffffffffffffffffffffffffffffffff16815260200190815260200160002060000160009054906101000a900460ff161561072a576040517f08c379a0000000000000000000000000000000000000000000000000000000008152600401610721906117ae565b60405180910390fd5b60405180604001604052806001151581526020016005815250600260008373ffffffffffffffffffffffffffffffffffffffff1673ffffffffffffffffffffffffffffffffffffffff16815260200190815260200160002060008201518160000160006101000a81548160ff021916908315150217905550602082015181600101559050507f42b360c89ba65a59ac7fec024a7bbb2c21d84b5abe5b5178ba0d7e34653a8130816040516107de919061150d565b60405180910390a150565b60008054906101000a900473ffffffffffffffffffffffffffffffffffffffff1673ffffffffffffffffffffffffffffffffffffffff163373ffffffffffffffffffffffffffffffffffffffff1614610877576040517f08c379a000000000000000000000000000000000000000000000000000000000815260040161086e906115ef565b60405180910390fd5b60008054906101000a900473ffffffffffffffffffffffffffffffffffffffff1673ffffffffffffffffffffffffffffffffffffffff166108fc479081150290604051600060405180830381858888f193505050501580156108dd573d6000803e3d6000fd5b50565b6060600060098054905090506000600a8210156108fe57600061090c565b600a8261090b91906117ce565b5b90506000600a83101561091f5782610922565b600a5b905060008167ffffffffffffffff8111156109405761093f611802565b5b60405190808252806020026020018201604052801561097957816020015b6109666110e6565b81526020019060019003908161095e5790505b50905060005b82811015610a3957600981856109959190611831565b815481106109a6576109a561160f565b5b9060005260206000209060030201604051806060016040529081600082015481526020016001820160009054906101000a900460ff1660028111156109ee576109ed611181565b5b6002811115610a00576109ff611181565b5b8152602001600282015481525050828281518110610a2157610a2061160f565b5b6020026020010181905250808060010191505061097f565b508094505050505090565b60015481565b60098181548110610a5a57600080fd5b90600052602060002090600302016000915090508060000154908060010160009054906101000a900460ff16908060020154905083565b600260003373ffffffffffffffffffffffffffffffffffffffff1673ffffffffffffffffffffffffffffffffffffffff16815260200190815260200160002060000160009054906101000a900460ff16610b20576040517f08c379a0000000000000000000000000000000000000000000000000000000008152600401610b17906118b1565b60405180910390fd5b6000600260003373ffffffffffffffffffffffffffffffffffffffff1673ffffffffffffffffffffffffffffffffffffffff1681526020019081526020016000206001015411610ba5576040517f08c379a0000000000000000000000000000000000000000000000000000000008152600401610b9c9061191d565b60405180910390fd5b662386f26fc100003414610bee576040517f08c379a0000000000000000000000000000000000000000000000000000000008152600401610be590611989565b60405180910390fd5b600260003373ffffffffffffffffffffffffffffffffffffffff1673ffffffffffffffffffffffffffffffffffffffff1681526020019081526020016000206001016000815480929190610c41906119a9565b919050555060006002811115610c5a57610c59611181565b5b816002811115610c6d57610c6c611181565b5b03610ca5576003600060038110610c8757610c8661160f565b5b600202016001016000815480929190610c9f9061166d565b91905055505b60016002811115610cb957610cb8611181565b5b816002811115610ccc57610ccb611181565b5b03610d04576003600160038110610ce657610ce561160f565b5b600202016001016000815480929190610cfe9061166d565b91905055505b60016002811115610d1857610d17611181565b5b816002811115610d2b57610d2a611181565b5b03610d63576003600260038110610d4557610d4461160f565b5b600202016001016000815480929190610d5d9061166d565b91905055505b3373ffffffffffffffffffffffffffffffffffffffff167f4604340d8a2ea8853e97081e120cbe247c39861049832c19d861ed8b4126e6f782604051610da991906112a8565b60405180910390a250565b60008054906101000a900473ffffffffffffffffffffffffffffffffffffffff1673ffffffffffffffffffffffffffffffffffffffff163373ffffffffffffffffffffffffffffffffffffffff1614610e42576040517f08c379a0000000000000000000000000000000000000000000000000000000008152600401610e39906115ef565b60405180910390fd5b60008054906101000a900473ffffffffffffffffffffffffffffffffffffffff1673ffffffffffffffffffffffffffffffffffffffff16ff5b60008054906101000a900473ffffffffffffffffffffffffffffffffffffffff1681565b60026020528060005260406000206000915090508060000160009054906101000a900460ff16908060010154905082565b60008054906101000a900473ffffffffffffffffffffffffffffffffffffffff1673ffffffffffffffffffffffffffffffffffffffff163373ffffffffffffffffffffffffffffffffffffffff1614610f5e576040517f08c379a0000000000000000000000000000000000000000000000000000000008152600401610f55906115ef565b60405180910390fd5b806000806101000a81548173ffffffffffffffffffffffffffffffffffffffff021916908373ffffffffffffffffffffffffffffffffffffffff1602179055508073ffffffffffffffffffffffffffffffffffffffff1660008054906101000a900473ffffffffffffffffffffffffffffffffffffffff1673ffffffffffffffffffffffffffffffffffffffff167f1c3c3d32752a939db9ac720da757226033136f4b2c9878c337e09f5c85b108da60405160405180910390a350565b60008054906101000a900473ffffffffffffffffffffffffffffffffffffffff1673ffffffffffffffffffffffffffffffffffffffff163373ffffffffffffffffffffffffffffffffffffffff16146110a9576040517f08c379a00000000000000000000000000000000000000000000000000000000081526004016110a0906115ef565b60405180910390fd5b60005b60038110156110e3576000600382600381106110cb576110ca61160f565b5b600202016001018190555080806001019150506110ac565b50565b6040518060600160405280600081526020016000600281111561110c5761110b611181565b5b8152602001600081525090565b600080fd5b6000819050919050565b6111318161111e565b811461113c57600080fd5b50565b60008135905061114e81611128565b92915050565b60006020828403121561116a57611169611119565b5b60006111788482850161113f565b91505092915050565b7f4e487b7100000000000000000000000000000000000000000000000000000000600052602160045260246000fd5b600381106111c1576111c0611181565b5b50565b60008190506111d2826111b0565b919050565b60006111e2826111c4565b9050919050565b6111f2816111d7565b82525050565b6112018161111e565b82525050565b600060408201905061121c60008301856111e9565b61122960208301846111f8565b9392505050565b6003811061123d57600080fd5b50565b60008135905061124f81611230565b92915050565b60008060006060848603121561126e5761126d611119565b5b600061127c8682870161113f565b935050602061128d86828701611240565b925050604061129e8682870161113f565b9150509250925092565b60006020820190506112bd60008301846111e9565b92915050565b600073ffffffffffffffffffffffffffffffffffffffff82169050919050565b60006112ee826112c3565b9050919050565b6112fe816112e3565b811461130957600080fd5b50565b60008135905061131b816112f5565b92915050565b60006020828403121561133757611336611119565b5b60006113458482850161130c565b91505092915050565b600081519050919050565b600082825260208201905092915050565b6000819050602082019050919050565b6113838161111e565b82525050565b611392816111d7565b82525050565b6060820160008201516113ae600085018261137a565b5060208201516113c16020850182611389565b5060408201516113d4604085018261137a565b50505050565b60006113e68383611398565b60608301905092915050565b6000602082019050919050565b600061140a8261134e565b6114148185611359565b935061141f8361136a565b8060005b8381101561145057815161143788826113da565b9750611442836113f2565b925050600181019050611423565b5085935050505092915050565b6000602082019050818103600083015261147781846113ff565b905092915050565b600060208201905061149460008301846111f8565b92915050565b60006060820190506114af60008301866111f8565b6114bc60208301856111e9565b6114c960408301846111f8565b949350505050565b6000602082840312156114e7576114e6611119565b5b60006114f584828501611240565b91505092915050565b611507816112e3565b82525050565b600060208201905061152260008301846114fe565b92915050565b60008115159050919050565b61153d81611528565b82525050565b60006040820190506115586000830185611534565b61156560208301846111f8565b9392505050565b600082825260208201905092915050565b7f4f6e6c7920636f6e7472616374206f776e65722063616e2063616c6c2074686960008201527f732066756e6374696f6e00000000000000000000000000000000000000000000602082015250565b60006115d9602a8361156c565b91506115e48261157d565b604082019050919050565b60006020820190508181036000830152611608816115cc565b9050919050565b7f4e487b7100000000000000000000000000000000000000000000000000000000600052603260045260246000fd5b7f4e487b7100000000000000000000000000000000000000000000000000000000600052601160045260246000fd5b60006116788261111e565b91507fffffffffffffffffffffffffffffffffffffffffffffffffffffffffffffffff82036116aa576116a961163e565b5b600182019050919050565b6000819050919050565b6116d06116cb8261111e565b6116b5565b82525050565b60006116e282856116bf565b6020820191506116f282846116bf565b6020820191508190509392505050565b7f4e487b7100000000000000000000000000000000000000000000000000000000600052601260045260246000fd5b600061173c8261111e565b91506117478361111e565b92508261175757611756611702565b5b828206905092915050565b7f566f74657220697320616c726561647920726567697374657265642100000000600082015250565b6000611798601c8361156c565b91506117a382611762565b602082019050919050565b600060208201905081810360008301526117c78161178b565b9050919050565b60006117d98261111e565b91506117e48361111e565b92508282039050818111156117fc576117fb61163e565b5b92915050565b7f4e487b7100000000000000000000000000000000000000000000000000000000600052604160045260246000fd5b600061183c8261111e565b91506118478361111e565b925082820190508082111561185f5761185e61163e565b5b92915050565b7f566f746572206973206e6f7420726567697374657265642e0000000000000000600082015250565b600061189b60188361156c565b91506118a682611865565b602082019050919050565b600060208201905081810360008301526118ca8161188e565b9050919050565b7f4e6f2072656d61696e696e6720766f7465730000000000000000000000000000600082015250565b600061190760128361156c565b9150611912826118d1565b602082019050919050565b60006020820190508181036000830152611936816118fa565b9050919050565b7f4d7573742073656e6420302e303120657468657220746f20766f746500000000600082015250565b6000611973601c8361156c565b915061197e8261193d565b602082019050919050565b600060208201905081810360008301526119a281611966565b9050919050565b60006119b48261111e565b9150600082036119c7576119c661163e565b5b60018203905091905056fea2646970667358221220b7c410ffa14425b1009ecb7e5310a59af45551e63ad5af4a3b511934f380a6d964736f6c63430008180033",
  "linkReferences": {},
  "deployedLinkReferences": {}
}